S0100000536D6172744375702E73726563E5
S11300000C9456000C9473000C9473000C947300BD
S11300100C9473000C9473000C9473000C94730090
S11300200C9473000C9473000C9473000C94730080
S11300300C9473000C9473000C9473000C94730070
S11300400C9473000C9473000C9473000C94730060
S11300500C9473000C9473000C9473000C94730050
S11300600C9473000C9473000C9473000C94730040
S11300700C9473000C9473000C9473000C94730030
S11300800C9473000C9473000C9473000C94730020
S11300900C9473000C9473000C9473000C94730010
S11300A00C9473000C9473000C94730011241FBE01
S11300B0CFEFDAE0DEBFCDBF11E0A0E0B1E0E8EFC2
S11300C0F1E002C005900D92A030B107D9F711E01C
S11300D0A0E0B1E001C01D92A030B107E1F70E9499
S11300E0F5000C94FA000C9400008FEF84B915B855
S11300F080EC87B918B880937C0010BA80937A009A
S11301000895EAE7F0E0808180648083808184FF41
S1130110FDCF8091780090917900803618F080E6C8
S113012085B912C080917800909179008C3520F0C7
S113013080E285B918B808C0809178009091790060
S1130140803210F080EA85B980917800909179002E
S11301509093890080938800EAE7F0E080818061D1
S11301608083089580E885B98FE79AE1A6E08150FD
S11301709040A040E1F700C0000080E485B98FE71B
S11301809AE1A6E081509040A040E1F700C0000051
S113019080E285B98FE79AE1A6E081509040A040C3
S11301A0E1F700C0000080EC85B98FE79AE1A6E092
S11301B081509040A040E1F700C0000080EA85B97A
S11301C08FE79AE1A6E081509040A040E1F700C09B
S11301D0000080E685B98FE79AE1A6E0815090405F
S11301E0A040E1F700C0000008950E9475000E943D
S10B01F08100FDCFF894FFCF5C
S9030000FC
